{
    "contractName": "Keeper",
    "abi": [
        {
            "inputs": [
                {
                    "internalType": "address",
                    "name": "",
                    "type": "address"
                },
                {
                    "internalType": "uint256",
                    "name": "",
                    "type": "uint256"
                }
            ],
            "name": "CannotChangeNonExistentData",
            "type": "error"
        },
        {
            "inputs": [
                {
                    "internalType": "address",
                    "name": "",
                    "type": "address"
                },
                {
                    "internalType": "uint256",
                    "name": "",
                    "type": "uint256"
                }
            ],
            "name": "CannotRemoveNonExistentData",
            "type": "error"
        },
        {
            "inputs": [
                {
                    "internalType": "address",
                    "name": "",
                    "type": "address"
                },
                {
                    "internalType": "uint256",
                    "name": "",
                    "type": "uint256"
                }
            ],
            "name": "CannotStoreExistingData",
            "type": "error"
        },
        {
            "inputs": [
                {
                    "internalType": "address",
                    "name": "",
                    "type": "address"
                },
                {
                    "internalType": "uint256",
                    "name": "",
                    "type": "uint256"
                }
            ],
            "name": "activeIdsForUser",
            "outputs": [
                {
                    "internalType": "uint256",
                    "name": "",
                    "type": "uint256"
                }
            ],
            "stateMutability": "view",
            "type": "function"
        },
        {
            "inputs": [
                {
                    "internalType": "uint256",
                    "name": "_id",
                    "type": "uint256"
                },
                {
                    "internalType": "bytes",
                    "name": "_newData",
                    "type": "bytes"
                }
            ],
            "name": "changeData",
            "outputs": [],
            "stateMutability": "payable",
            "type": "function"
        },
        {
            "inputs": [
                {
                    "internalType": "address",
                    "name": "",
                    "type": "address"
                }
            ],
            "name": "nextDataId",
            "outputs": [
                {
                    "internalType": "uint256",
                    "name": "",
                    "type": "uint256"
                }
            ],
            "stateMutability": "view",
            "type": "function"
        },
        {
            "inputs": [
                {
                    "internalType": "uint256",
                    "name": "_id",
                    "type": "uint256"
                }
            ],
            "name": "removeData",
            "outputs": [],
            "stateMutability": "payable",
            "type": "function"
        },
        {
            "inputs": [
                {
                    "internalType": "bytes",
                    "name": "_data",
                    "type": "bytes"
                }
            ],
            "name": "storeData",
            "outputs": [],
            "stateMutability": "payable",
            "type": "function"
        },
        {
            "inputs": [
                {
                    "internalType": "address",
                    "name": "",
                    "type": "address"
                },
                {
                    "internalType": "uint256",
                    "name": "",
                    "type": "uint256"
                }
            ],
            "name": "userData",
            "outputs": [
                {
                    "internalType": "bytes",
                    "name": "",
                    "type": "bytes"
                }
            ],
            "stateMutability": "view",
            "type": "function"
        }
    ],
    "bytecode": "608080604052346015576107b4908161001a8239f35b5f80fdfe60806040526004361015610011575f80fd5b5f3560e01c80630592f5d51461066b5780633c05eca11461056157806363ee461d14610529578063a94840bb146103d5578063ac5c8535146101ec5763f28365021461005b575f80fd5b60403660031901126101e85760043560243567ffffffffffffffff81116101e85761008a90369060040161073a565b9091335f525f60205260405f20815f526020526100aa60405f2054610702565b156101d257335f525f60205260405f20905f5260205260405f209067ffffffffffffffff81116101be576100de8254610702565b601f8111610183575b505f601f821160011461012557819061011693945f9261011a575b50508160011b915f199060031b1c19161790565b9055005b013590505f80610102565b601f19821693835f5260205f20915f5b86811061016b5750836001959610610152575b505050811b019055005b01355f19600384901b60f8161c191690555f8080610148565b90926020600181928686013581550194019101610135565b6101ae90835f5260205f20601f840160051c810191602085106101b4575b601f0160051c0190610768565b5f6100e7565b90915081906101a1565b634e487b7160e01b5f52604160045260245ffd5b63495e3c0d60e11b5f523360045260245260445ffd5b5f80fd5b60203660031901126101e85760043567ffffffffffffffff81116101e85761021890369060040161073a565b335f52600260205260405f2054335f525f60205260405f20815f5260205261024360405f2054610702565b6103bf57335f52600260205260405f2080545f1981146103ab576001019055335f52600160205260405f208054680100000000000000008110156101be57610295816102ad93600186940181556106d9565b90919082549060031b91821b915f19901b1916179055565b335f525f60205260405f20905f5260205260405f209067ffffffffffffffff81116101be576102dc8254610702565b601f811161037b575b505f601f821160011461031e57819061011693945f926103135750508160011b915f199060031b1c19161790565b013590508480610102565b601f19821693835f5260205f20915f5b868110610363575083600195961061034a57505050811b019055005b01355f19600384901b60f8161c19169055838080610148565b9092602060018192868601358155019401910161032e565b6103a590835f5260205f20601f840160051c810191602085106101b457601f0160051c0190610768565b836102e5565b634e487b7160e01b5f52601160045260245ffd5b630527a1a960e31b5f523360045260245260445ffd5b60203660031901126101e857600435335f525f60205260405f20815f5260205261040260405f2054610702565b1561051357335f525f60205260405f20815f5260205260405f206104268154610702565b90816104d0575b5050335f52600160205260405f209081545f5b81811061044957005b8261045482866106d9565b90549060031b1c1461046857600101610440565b5f19820192509082116103ab5761029561048561049393856106d9565b90549060031b1c91846106d9565b805480156104bc575f1901906104a982826106d9565b8154905f199060031b1b19169055555f80f35b634e487b7160e01b5f52603160045260245ffd5b81601f5f93116001146104e75750555b818061042d565b8183526020832061050391601f0160051c810190600101610768565b80825281602081209155556104e0565b6353de1b5760e01b5f523360045260245260445ffd5b346101e85760203660031901126101e8576001600160a01b0361054a6106c3565b165f526002602052602060405f2054604051908152f35b346101e85760403660031901126101e8576001600160a01b036105826106c3565b165f525f60205260405f206024355f5260205260405f20604051905f8154916105aa83610702565b9081855260208501936001811690815f146106505750600114610618575b5050829003601f01601f191682019167ffffffffffffffff8311818410176101be576040918391828452602083525180918160208501528484015e5f828201840152601f01601f19168101030190f35b9091505f5260205f205f905b82821061063a57506020915083010183806105c8565b6001816020925483858901015201910190610624565b60ff191685525050151560051b8301602001905083806105c8565b346101e85760403660031901126101e8576106846106c3565b6001600160a01b03165f908152600160205260409020805460243591908210156101e8576020916106b4916106d9565b90549060031b1c604051908152f35b600435906001600160a01b03821682036101e857565b80548210156106ee575f5260205f2001905f90565b634e487b7160e01b5f52603260045260245ffd5b90600182811c92168015610730575b602083101461071c57565b634e487b7160e01b5f52602260045260245ffd5b91607f1691610711565b9181601f840112156101e85782359167ffffffffffffffff83116101e857602083818601950101116101e857565b818110610773575050565b5f815560010161076856fea2646970667358221220dccf38888239d5f461e04166230a57ec75e4e29fe76132fd84f301286211f3fd64736f6c634300081e0033",
    "sourcePath": "c:/Users/ila82/EncryptKeep/contracts/src/Keeper.sol",
    "compiler": {
        "name": "solc",
        "version": "0.8.30+commit.73712a01"
    },
    "functionHashes": {
        "activeIdsForUser(address,uint256)": "0592f5d5",
        "changeData(uint256,bytes)": "f2836502",
        "nextDataId(address)": "63ee461d",
        "removeData(uint256)": "a94840bb",
        "storeData(bytes)": "ac5c8535",
        "userData(address,uint256)": "3c05eca1"
    },
    "gasEstimates": {
        "creation": {
            "codeDepositCost": "394400",
            "executionCost": "437",
            "totalCost": "394837"
        },
        "external": {
            "activeIdsForUser(address,uint256)": "6769",
            "changeData(uint256,bytes)": "infinite",
            "nextDataId(address)": "2442",
            "removeData(uint256)": "infinite",
            "storeData(bytes)": "infinite",
            "userData(address,uint256)": "infinite"
        }
    }
}